:100000000C942A000C9458030C9447000C9447005D
:100010000C9447000C9447000C9447000C94470044
:100020000C9447000C9447000C9453060C94330333
:100030000C9447000C9447000C9447000C94470024
:100040000C9447000C9447000C9447000C94470014
:100050000C94470011241FBECFE5D8E0DEBFCDBF12
:1000600010E0A0E6B0E0ECECF7E102C005900D92E4
:10007000A23EB107D9F720E0A2EEB0E001C01D9288
:10008000AE3FB207E1F70E9440020C94E40B0C94DF
:100090000000CF93C82F80FF06C041E064E080E0FD
:1000A0000E948C0405C040E064E080E00E948C0463
:1000B000C1FF06C041E065E080E00E948C0405C0FD
:1000C00040E065E080E00E948C04C2FF06C041E091
:1000D00066E080E00E948C0405C040E066E080E0BD
:1000E0000E948C04C3FF06C041E067E080E00E94EC
:1000F0008C0405C040E067E080E00E948C04CF9152
:100100000895CF93C82F40E061E081E00E948C0405
:1001100040E062E081E00E948C048C2F82958F7019
:100120000E94490041E063E081E00E948C048FE975
:100130009FE00197F1F700C0000040E063E081E03C
:100140000E948C048C2F0E94490041E063E081E012
:100150000E948C048FE99FE00197F1F700C0000036
:1001600040E063E081E00E948C04CF91089541E07B
:1001700061E081E00E940C0441E062E081E00E94C5
:100180000C0441E063E081E00E940C0441E064E083
:1001900080E00E940C0441E065E080E00E940C04D5
:1001A00041E066E080E00E940C0441E067E080E00E
:1001B0000E940C042FEF83EF91E02150804090408B
:1001C000E1F700C0000040E061E081E00E948C04A3
:1001D00040E062E081E00E948C0482E00E944900DD
:1001E00041E063E081E00E948C048FE39FE101978E
:1001F000F1F700C0000040E063E081E00E948C0461
:1002000088E20E94810090EF9A95F1F78CE00E94BD
:10021000810020EF2A95F1F781E00E9481008FE3B1
:100220009FE10197F1F700C0000086E00E94810085
:100230000895CF93C82F41E061E081E00E948C04D3
:1002400040E062E081E00E948C048C2F82958F70E8
:100250000E94490041E063E081E00E948C048FE944
:100260009FE00197F1F700C0000040E063E081E00B
:100270000E948C048C2F0E94490041E063E081E0E1
:100280000E948C048FE99FE00197F1F700C0000005
:1002900040E063E081E00E948C04CF9108950F93C9
:1002A0001F93CF93009729F40CC00E941901CF5FD0
:1002B00002C08C01C0E0F801EC0FF11D80818111BA
:1002C000F4CFCF911F910F91089581E00E9481009A
:1002D0008FE39FE10197F1F700C00000089581309E
:1002E00019F48FE7860F06C0823019F48FEB860F62
:1002F00001C080E00E94810008950F931F93CF9367
:10030000DF93CDB7DEB7E2970FB6F894DEBF0FBE2E
:10031000CDBF9F938F937F936F9380E690E09F93E1
:100320008F938E010F5F1F4F1F930F930E94FA0848
:10033000C8010E944F010FB6F894DEBF0FBECDBFBB
:10034000E2960FB6F894DEBF0FBECDBFDF91CF911E
:100350001F910F9108958F929F92AF92BF92CF926B
:10036000DF92EF92FF926B017C0149015A0184E612
:1003700090E00E944F01C501B4010E947D0185E219
:100380000E9419018AE690E00E944F0160E082E03D
:100390000E946F0187E790E00E944F01C701B601FC
:1003A0000E947D018EE790E00E944F01FF90EF9048
:1003B000DF90CF90BF90AF909F908F900895623361
:1003C000710581059105B9F030F469317105810538
:1003D000910561F008956A3471058105910581F0F8
:1003E0006E3571058105910581F0089581E890E0F1
:1003F0000E944F01089589E990E00E944F010895FD
:1004000081EB90E00E944F01089589EC90E00E94FA
:100410004F01089540E00E940C040895EF92FF926E
:100420001F93CF93DF931F92CDB7DEB72115310510
:1004300001F17901142FAE014F5F5F4F0E940C054F
:10044000113019F0123059F014C08981813019F43B
:10045000F70180830EC082E0F70180830AC08981A2
:10046000811104C081E0F701808303C082E0F701BD
:1004700080830F90DF91CF911F91FF90EF900895AF
:10048000CF93DF93CDB7DEB72B970FB6F894DEBFCF
:100490000FBECDBF0E94B7000E9470050E943F06AC
:1004A0000E94740540E062E083E00E940C0441E099
:1004B00065E083E00E940C0460E082E00E940A0292
:1004C00061E082E00E940A0262E082E00E940A0289
:1004D00060E080E00E9447050E94490681E0782E96
:1004E0009E01275F3F4F41E060E082E00E940E02E4
:1004F0009E01265F3F4F41E061E082E00E940E02D4
:100500009E01255F3F4F41E062E082E00E940E02C3
:100510008985813041F440E050E068EC71E489E184
:1005200090E00E9487058A85813041F440E050E0E8
:1005300068E472E483E290E00E9487058B85813055
:1005400041F440E050E066E972E48DE290E00E9400
:1005500087058985813071F08A85813059F08B85D6
:10056000813041F040E050E06EEB72E487E390E0D0
:100570000E9487058091EA009091EB00A091EC0029
:10058000B091ED000397A105B10509F0A9CF60E096
:1005900080E00E9447051092EA001092EB00109252
:1005A000EC001092ED001092F2001092F300109205
:1005B000F4001092F5008090FA009090FB00A0905B
:1005C000FC00B090FD00C090F600D090F700E090E5
:1005D000F800F090F9000091EE001091EF002091EA
:1005E000F0003091F1004091E6005091E7006091F9
:1005F000E8007091E900CE0101960E94D3050091B8
:10060000FA001091FB002091FC003091FD00409118
:10061000F6005091F7006091F8007091F900CE015A
:1006200005960E94170680E0711059CF29813A8102
:100630004B815C816D817E818F8198850E94AB01A9
:1006400069817A818B819C810E94DF012FEF84E395
:100650009CE0215080409040E1F700C000000E94E3
:100660006501872D3CCF1F920F920FB60F92112478
:100670008F939F93AF93BF938091F2009091F3007B
:10068000A091F400B091F5000196A11DB11D8093D9
:10069000F2009093F300A093F400B093F500BF91A3
:1006A000AF919F918F910F900FBE0F901F90189553
:1006B0001F920F920FB60F9211242F933F934F93D7
:1006C0005F936F937F938F939F93AF93BF93EF93BA
:1006D000FF938091EA009091EB00A091EC00B09123
:1006E000ED000097A105B10509F512BE1092F200C8
:1006F0001092F3001092F4001092F50061E080E097
:100700000E9447058091EA009091EB00A091EC00D7
:10071000B091ED000196A11DB11D8093EA00909368
:10072000EB00A093EC00B093ED0065C08130910523
:10073000A105B105A1F582B790E0A0E0B0E08093FB
:10074000E6009093E700A093E800B093E900809161
:10075000F2009091F300A091F400B091F500809325
:10076000EE009093EF00A093F000B093F10060E0F2
:1007700080E00E9447058091EA009091EB00A091F3
:10078000EC00B091ED000196A11DB11D8093EA002F
:100790009093EB00A093EC00B093ED002CC082305E
:1007A0009105A105B10539F542B750E060E070E070
:1007B0004093F6005093F7006093F8007093F900AF
:1007C0004091F2005091F3006091F4007091F500B7
:1007D0004093FA005093FB006093FC007093FD007F
:1007E0000196A11DB11D8093EA009093EB00A093A8
:1007F000EC00B093ED00FF91EF91BF91AF919F910D
:100800008F917F916F915F914F913F912F910F90B9
:100810000FBE0F901F901895843008F07CC0683090
:1008200008F079C0423008F076C0813019F130F01C
:100830008230E1F1833009F454C00895442371F00B
:10084000413009F068C02AB381E090E002C0880F0F
:10085000991F6A95E2F7822B8ABB08952AB381E03B
:1008600090E002C0880F991F6A95E2F78095822375
:100870008ABB0895442371F0413009F04CC027B37E
:1008800081E090E002C0880F991F6A95E2F7822B01
:1008900087BB089527B381E090E002C0880F991FBD
:1008A0006A95E2F78095822387BB0895442369F017
:1008B000413089F524B381E090E002C0880F991F90
:1008C0006A95E2F7822B84BB089524B381E090E01F
:1008D00002C0880F991F6A95E2F78095822384BB36
:1008E0000895442369F04130B1F421B381E090E0F0
:1008F00002C0880F991F6A95E2F7822B81BB089589
:1009000021B381E090E002C0880F991F6A95E2F759
:100910008095822381BB0895843008F07CC06830C4
:1009200008F079C0423008F076C0813019F130F01B
:100930008230E1F1833009F454C00895442371F00A
:10094000413009F068C02BB381E090E002C0880F0D
:10095000991F6A95E2F7822B8BBB08952BB381E038
:1009600090E002C0880F991F6A95E2F78095822374
:100970008BBB0895442371F0413009F04CC028B37B
:1009800081E090E002C0880F991F6A95E2F7822B00
:1009900088BB089528B381E090E002C0880F991FBA
:1009A0006A95E2F78095822388BB0895442369F015
:1009B000413089F525B381E090E002C0880F991F8E
:1009C0006A95E2F7822B85BB089525B381E090E01C
:1009D00002C0880F991F6A95E2F78095822385BB34
:1009E0000895442369F04130B1F422B381E090E0EE
:1009F00002C0880F991F6A95E2F7822B82BB089587
:100A000022B381E090E002C0880F991F6A95E2F757
:100A10008095822382BB08958430C0F56830B0F59C
:100A20004115510599F1813089F028F08230C9F0E3
:100A3000833011F1089589B390E002C095958795B0
:100A40006A95E2F78170FA018083089586B390E099
:100A500002C0959587956A95E2F78170FA018083C7
:100A6000089583B390E002C0959587956A95E2F763
:100A70008170FA018083089580B390E002C095955B
:100A800087956A95E2F78170FA0180830895811154
:100A900026C0613069F028F06230C1F0633079F02F
:100AA0001BC085B7816085BF85B7826085BF14C0D4
:100AB00085B78E7F85BF85B7826085BF0DC085B73E
:100AC000816085BF85B78D7F85BF06C085B78E7F66
:100AD00085BF85B78D7F85BF8BB780648BBF089539
:100AE0008FB780688FBF08958FB58E7F8FBD8FB50C
:100AF00082608FBD8EB588608EBD8EB580618EBDE3
:100B00008FB58F7B8FBD8FB580688FBD0895CF92D5
:100B1000DF92EF92FF92CF93DF93EC016A017B01AA
:100B200020E030E048EC52E4C701B6010E94F9062B
:100B3000181694F19E0140E050E060E970ED83E00A
:100B400090E00E94BE082150310937BD26BD66B530
:100B500077B56F5F7F4F80E090E00E949F07A7010D
:100B600096010E94510820E030E048EC52E40E94D7
:100B7000FE0620E030E040E85FE30E948C060E9421
:100B800070077BBD6ABD8EB581608EBD8EB58260FB
:100B90008EBD8EB58B7F8EBDDF91CF91FF90EF9094
:100BA000DF90CF9008956F927F928F929F92AF9235
:100BB000BF92CF92DF92EF92FF920F931F93CF934A
:100BC000DF93CDB7DEB73C01892B11F1322F212FF6
:100BD000102F0027D901C801840F951FA61FB71F2A
:100BE0009C01AD01A4E6B0E00E94E0083A2D292D59
:100BF000182D0027A90198012C0D3D1D4E1D5F1DCC
:100C00000E94BE08D3012D933D934D935C9313979F
:100C1000DF91CF911F910F91FF90EF90DF90CF90D8
:100C2000BF90AF909F908F907F906F9008950F939B
:100C30001F93CF93DF93EC01892BE1F0322F212F0B
:100C4000102F0027400F511F621F731F9A01AB0125
:100C5000220F331F441F551F220F331F441F551FE0
:100C600060E472E48FE090E00E94BE08288339833C
:100C70004A835B83DF91CF911F910F91089583B7D2
:100C80008F7B83BF83B7877F83BF89B7816089BF2D
:100C9000089583B7816083BF83B7826083BF83B7C2
:100CA0008B7F83BF08951F920F920FB60F9211246E
:100CB0002F933F934F935F936F937F938F939F9364
:100CC000AF93BF93EF93FF938091E2009091E30085
:100CD00001969093E3008093E2008C3D954059F497
:100CE0001092E3001092E200E091E400F091E50040
:100CF000309709F00995FF91EF91BF91AF919F91C6
:100D00008F917F916F915F914F913F912F910F90B4
:100D10000FBE0F901F9018955058BB27AA270E940E
:100D2000A4060C9417080E94090838F00E941008C5
:100D300020F039F49F3F19F426F40C9406080EF4C1
:100D4000E095E7FB0C940008E92F0E94280858F36F
:100D5000BA17620773078407950720F079F4A6F5A0
:100D60000C944A080EF4E0950B2EBA2FA02D0B011F
:100D7000B90190010C01CA01A0011124FF27591BE0
:100D800099F0593F50F4503E68F11A16F040A22FE6
:100D9000232F342F4427585FF3CF46953795279557
:100DA000A795F0405395C9F77EF41F16BA0B620B56
:100DB000730B840BBAF09150A1F0FF0FBB1F661F9D
:100DC000771F881FC2F70EC0BA0F621F731F841FE0
:100DD00048F4879577956795B795F7959E3F08F006
:100DE000B0CF9395880F08F09927EE0F97958795C8
:100DF00008950E94DC0708F481E008950E9412071C
:100E00000C9417080E94100858F00E94090840F03E
:100E100029F45F3F29F00C94000851110C944B0801
:100E20000C9406080E94280868F39923B1F355230F
:100E300091F3951B550BBB27AA27621773078407ED
:100E400038F09F5F5F4F220F331F441FAA1FA9F383
:100E500035D00E2E3AF0E0E832D091505040E69571
:100E6000001CCAF72BD0FE2F29D0660F771F881FD2
:100E7000BB1F261737074807AB07B0E809F0BB0BC5
:100E8000802DBF01FF2793585F4F3AF09E3F5105D9
:100E900078F00C9400080C944B085F3FE4F3983E04
:100EA000D4F3869577956795B795F7959F5FC9F7C2
:100EB000880F911D9695879597F90895E1E0660F43
:100EC000771F881FBB1F621773078407BA0720F0BC
:100ED000621B730B840BBA0BEE1F88F7E095089525
:100EE0000E94300888F09F5798F0B92F9927B75182
:100EF000B0F0E1F0660F771F881F991F1AF0BA95BE
:100F0000C9F714C0B13091F00E944A08B1E00895C9
:100F10000C944A08672F782F8827B85F39F0B93FBB
:100F2000CCF3869577956795B395D9F73EF4909570
:100F30008095709561957F4F8F4F9F4F0895E894EE
:100F400009C097FB3EF490958095709561957F4F11
:100F50008F4F9F4F9923A9F0F92F96E9BB279395BF
:100F6000F695879577956795B795F111F8CFFAF4CF
:100F7000BB0F11F460FF1BC06F5F7F4F8F4F9F4F00
:100F800016C0882311F096E911C0772321F09EE85E
:100F9000872F762F05C0662371F096E8862F70E0C4
:100FA00060E02AF09A95660F771F881FDAF7880F9E
:100FB0009695879597F90895990F0008550FAA0BF4
:100FC000E0E8FEEF16161706E807F907C0F012165C
:100FD0001306E407F50798F0621B730B840B950B5F
:100FE00039F40A2661F0232B242B252B21F40895B4
:100FF0000A2609F4A140A6958FEF811D811D089551
:1010000097F99F6780E870E060E008959FEF80ECBB
:10101000089500240A94161617061806090608955E
:1010200000240A9412161306140605060895092EC4
:101030000394000C11F4882352F0BB0F40F4BF2B33
:1010400011F460FF04C06F5F7F4F8F4F9F4F089573
:1010500057FD9058440F551F59F05F3F71F0479569
:10106000880F97FB991F61F09F3F79F0879508954E
:10107000121613061406551FF2CF4695F1DF08C06D
:10108000161617061806991FF1CF8695710561058A
:1010900008940895E894BB2766277727CB0197F932
:1010A00008950E9464080C9417080E94090838F0FB
:1010B0000E94100820F0952311F00C9400080C9465
:1010C000060811240C944B080E94280870F3959F81
:1010D000C1F3950F50E0551F629FF001729FBB272F
:1010E000F00DB11D639FAA27F00DB11DAA1F649FCB
:1010F0006627B00DA11D661F829F2227B00DA11D7E
:10110000621F739FB00DA11D621F839FA00D611D03
:10111000221F749F3327A00D611D231F849F600D24
:10112000211D822F762F6A2F11249F5750409AF04D
:10113000F1F088234AF0EE0FFF1FBB1F661F771FD9
:10114000881F91505040A9F79E3F510580F00C94A4
:1011500000080C944B085F3FE4F3983ED4F3869567
:1011600077956795B795F795E7959F5FC1F7FE2B44
:10117000880F911D9695879597F90895A1E21A2EEB
:10118000AA1BBB1BFD010DC0AA1FBB1FEE1FFF1F2B
:10119000A217B307E407F50720F0A21BB30BE40B7B
:1011A000F50B661F771F881F991F1A9469F76095C2
:1011B0007095809590959B01AC01BD01CF0108957C
:1011C0000E94EB08A59F900DB49F900DA49F800DE9
:1011D000911D11240895A29FB001B39FC001A39F48
:1011E000700D811D1124911DB29F700D811D112460
:1011F000911D0895AEE0B0E0E0E0F9E00C94BB0B87
:101200000D891E8986E08C831A8309838FEF9FE7FF
:101210009E838D83AE01475E5F4F6F89788DCE01CF
:1012200001960E941C09EF81F885E00FF11F1082E2
:101230002E96E4E00C94D70BABE0B0E0E2E2F9E0EC
:101240000C94AD0B6C017B018A01FC0117821682A4
:10125000838181FFCCC1CE0101963C01F6019381CF
:10126000F70193FD859193FF81917F01882309F414
:10127000BAC1853239F493FD859193FF81917F0145
:10128000853229F4B60190E00E94130BE7CF912C30
:10129000212C312CFFE1F315D8F08B3279F038F4A2
:1012A000803279F08332A1F4232D20611DC08D326C
:1012B00061F0803369F4232D216016C0832D826094
:1012C000382EE32DE4603E2E2AC0F32DF8601DC0B9
:1012D00037FC2DC020ED280F2A3040F08E32B9F4B3
:1012E00036FC81C1232D2064322E19C036FE06C083
:1012F0008AE0989E200D1124922E11C0EAE02E9EC5
:10130000200D1124222EF32DF0623F2E08C08C36C2
:1013100021F4832D8068382E02C0883641F4F7010D
:1013200093FD859193FF81917F018111B3CF982F18
:101330009F7D9554933028F40C5F1F4F9FE3998352
:101340000DC0833631F0833771F0833509F059C011
:1013500021C0F801808189830E5F1F4F8824839408
:10136000912C530113C02801F2E04F0E511CF801DB
:10137000A080B18036FE03C0692D70E002C06FEF1F
:101380007FEFC5010E94080B4C018201F32DFF770E
:101390003F2E16C0280122E0420E511CF801A08009
:1013A000B18036FE03C0692D70E002C06FEF7FEFA1
:1013B000C5010E94FD0A4C01F32DF0683F2E820109
:1013C00033FC1BC0822D90E088169906B0F4B6015C
:1013D00080E290E00E94130B2A94F4CFF50137FCD1
:1013E000859137FE81915F01B60190E00E94130B59
:1013F00021102A9421E0821A91088114910471F736
:10140000E8C0843611F0893641F5F80137FE07C08F
:1014100060817181828193810C5F1F4F08C0608160
:101420007181072E000C880B990B0E5F1F4FF32D57
:10143000FF763F2E97FF09C0909580957095619536
:101440007F4F8F4F9F4FF0683F2E2AE030E0A3017F
:101450000E944F0B882E861845C0853731F4232D06
:101460002F7EB22E2AE030E025C0932D997FB92E31
:101470008F36C1F018F4883579F0B5C0803719F08F
:10148000883721F0B0C0E92FE061BE2EB4FE0DC058
:10149000FB2DF460BF2E09C034FE0AC0292F266040
:1014A000B22E06C028E030E005C020E130E002C0E6
:1014B00020E132E0F801B7FE07C0608171818281CE
:1014C00093810C5F1F4F06C06081718180E090E0C6
:1014D0000E5F1F4FA3010E944F0B882E8618FB2D15
:1014E000FF773F2E36FE0DC0232D2E7FA22E8914AE
:1014F00058F434FE0BC032FC09C0832D8E7EA82E1A
:1015000005C0B82CA32C03C0B82C01C0B92CA4FE74
:101510000FC0FE01E80DF11D8081803321F49A2D6A
:10152000997EA92E09C0A2FE06C0B394B39404C04C
:101530008A2D867809F0B394A3FC11C0A0FE06C0E2
:10154000B21488F4280C922C9B180EC0B21460F4CC
:10155000B60180E290E00E94130BB394F7CFB2146F
:1015600018F42B1802C0982C212CA4FE10C0B60130
:1015700080E390E00E94130BA2FE17C0A1FC03C001
:1015800088E790E002C088E590E0B6010CC08A2DA3
:10159000867859F0A1FE02C08BE201C080E2A7FC70
:1015A0008DE2B60190E00E94130B891438F4B60165
:1015B00080E390E00E94130B9A94F7CF8A94F30192
:1015C000E80DF11D8081B60190E00E94130B81109F
:1015D000F5CF222009F442CEB60180E290E00E94CD
:1015E000130B2A94F6CFF6018681978102C08FEF04
:1015F0009FEF2B96E2E10C94C90BFC010590615022
:1016000070400110D8F7809590958E0F9F1F089518
:10161000FC016150704001900110D8F780959095C1
:101620008E0F9F1F08950F931F93CF93DF93FB019E
:10163000238121FD03C08FEF9FEF2CC022FF16C036
:1016400046815781248135814217530744F4A08194
:10165000B1819D012F5F3F4F318320838C93268181
:1016600037812F5F3F4F3783268314C08B01EC01F6
:10167000FB010084F185E02D0995892BE1F6D80165
:1016800016968D919C911797019617969C938E9321
:101690001697CE01DF91CF911F910F910895FA0116
:1016A000AA27283051F1203181F1E8946F936E7FA1
:1016B0006E5F7F4F8F4F9F4FAF4FB1E03ED0B4E092
:1016C0003CD0670F781F891F9A1FA11D680F791FD3
:1016D0008A1F911DA11D6A0F711D811D911DA11DE4
:1016E00020D009F468943F912AE0269F11243019F4
:1016F000305D3193DEF6CF010895462F4770405D8F
:101700004193B3E00FD0C9F7F6CF462F4F70405D3D
:101710004A3318F0495D31FD4052419302D0A9F798
:10172000EACFB4E0A6959795879577956795BA9592
:10173000C9F700976105710508959B01AC010A2E58
:1017400006945795479537952795BA95C9F7620F2F
:10175000731F841F951FA01D08952F923F924F92D3
:101760005F926F927F928F929F92AF92BF92CF9231
:10177000DF92EF92FF920F931F93CF93DF93CDB73A
:10178000DEB7CA1BDB0B0FB6F894DEBF0FBECDBFB2
:1017900009942A88398848885F846E847D848C8483
:1017A0009B84AA84B984C884DF80EE80FD800C818C
:1017B0001B81AA81B981CE0FD11D0FB6F894DEBF6F
:0C17C0000FBECDBFED010895F894FFCFDF
:1017CC00256C7500445554593D002050574D2053FD
:1017DC0069676E616C3A0020465245513D00485A8B
:1017EC00007C5F5F5F5F7C2D2D7C5F5F5F5F7C2D7E
:1017FC002D7C5F5F5F5F7C2D007C5F5F5F5F7C2D6E
:10180C002D2D2D7C5F5F5F5F7C2D2D2D2D7C5F5FE3
:10181C00007C2D2D2D2D7C5F5F7C2D2D2D2D7C5F47
:10182C005F7C2D2D2D2D7C5F007C2D2D2D2D2D7C69
:10183C005F7C2D2D2D2D2D7C5F7C2D2D2D2D2D7C2C
:02184C005F003B
:00000001FF
